:0400000089EF03F091
:08000800046ED8CF05F0E0CF33
:1000100006F00001E9CF0CF0EACF07F0E1CF08F0DD
:10002000E2CF09F0D9CF0AF0DACF0BF0F3CF12F01C
:10003000F4CF13F0FACF14F0F5CF15F0F6CF16F099
:10004000F7CF17F000C00EF001C00FF002C010F0A3
:1000500003C011F09DA030EF00F09EB09EEF01F0C4
:100060000EC000F00FC001F010C002F011C003F08C
:100070000CC0E9FF07C0EAFF078E08C0E1FF09C016
:10008000E2FF0AC0D9FF0BC0DAFF12C0F3FF13C0B2
:10009000F4FF14C0FAFF15C0F5FF16C0F6FF17C035
:1000A000F7FF045006C0E0FF05C0D8FF1000F76A54
:1000B000BE0FF66E000EF7220900F5501200FF7F0A
:1000C000BF3FDF5F9F1FEF6FAF2FCF4F8FF70F77D0
:1000D000B737D7579717E767A727C74787FB077B28
:1000E000BB3BDB5B9B1BEB6BAB2BCB4B8BF30B73F0
:1000F000B333D3539313E363A323C34383FD037D3C
:10010000BD3DDD5D9D1DED6DAD2DCD4D8DF50D75AF
:10011000B535D5559515E565A525C54585F9057907
:10012000B939D9599919E969A929C94989F10971CF
:10013000B131D1519111E1FE617EBEA13E21C1DEFE
:10014000415E819E011EEE6EAE2ECE4E8EF60E7676
:10015000B636D6569616E666A626C64686FA067AB7
:10016000BA3ADA5A9A1AEA6AAA2ACA4A8AF20A727F
:10017000B232D2529212E262A222C24282FC027CCB
:10018000BC3CDC5C9C1CEC6CAC2CCC4C8CF40C743F
:10019000B434D4549414E464A424C44484F8047897
:1001A000B838D8589818E868A828C84888F008705F
:1001B000B030D0509010E060A020C0408000F76ABE
:1001C000CE0FF66E010EF7220900F5501200808363
:1001D00086898C909396999C9FA2A5A8ABAEB1B34B
:1001E000B6B9BCBFC1C4C7C9CCCED1D3D5D8DADC6F
:1001F000DEE0E2E4E6E8EAEBEDEFF0F1F3F4F5F649
:10020000F8F9FAFAFBFCFDFDFEFEFEFFFFFFFFFF23
:10021000FFFFFEFEFEFDFDFCFBFAFAF9F8F6F5F431
:10022000F3F1F0EFEDEBEAE8E6E4E2E0DEDCDAD869
:10023000D5D3D1CECCC9C7C4C1BFBCB9B6B3B1AE9A
:10024000ABA8A5A29F9C999693908C898683807D6C
:100250007A7774706D6A6764615E5B5855524F4D72
:100260004A4744413F3C393734322F2D2B2826242E
:1002700022201E1C1A1816151311100F0D0C0B0A34
:100280000807060605040303020202010101010139
:10029000010102020203030405060607080A0B0C0B
:1002A0000D0F1011131516181A1C1E2022242628B3
:1002B0002B2D2F323437393C3F4144474A4D4F5262
:1002C00055585B5E6164676A6D7074777A7D016A08
:1002D000026A006A036A3F5002E13E5018E0100EC5
:1002E000406ED8903C363D36003603363F50035CB6
:1002F00002E13E50005C07E33E50005ED8A00306DA
:100300003F50035ED88001360236402EEAD7A6EF72
:1003100001F03F50016A3E5C03E23EC000F00CD0A9
:10032000006A080E406E3E3600363F50005CD8B082
:10033000006E0136402EF7D7B7EF01F0780E3D6E14
:10034000F80E3C6E3F6A21C03EF0C1D70150FF0855
:100350003C6EFF0E0254CF6E3CC0CEFF2050202AD0
:10036000036A2DDF3D6E3E6E1FC03FF0D2D70150B5
:10037000FF08036A9CDE946A8B6E9E9030EF00F05B
:100380003150F80F3BE2080F00EF02F09290899095
:10039000929289929294899431D09290899092927B
:1003A0008992929489842AD092908990929289829B
:1003B0009294899423D09290899092928982929477
:1003C00089841CD092908980929289929294899487
:1003D00015D09290898092928992929489840ED0BD
:1003E00092908980929289829294899407D0929077
:1003F0008980929289829294898400D0BBEF03F025
:10040000E824F76AF7361B0FF66E040EF7220A008F
:10041000F550FA6E0800F550F96EEE03E003D203D2
:10042000C403B603A8039A038C032FC0EAFF2EC0AF
:10043000E9FF3BC0EFFFE92AD8B4EA2AEF6A2E2A87
:10044000D8B42F2A75EF02F0EACF3AF0E9CF39F0AD
:100450003338F009356E3526E20F366E320F386EBE
:1004600033500F0B362636263826E90F376E3726DF
:10047000372632380F0B3726382637363836381EAF
:10048000383632500F0B38263536070E346E0A0ECA
:1004900037063826FDE336063726FDE335063626D1
:1004A000FDE334063526FDE3EA6A340EE96E070EF5
:1004B0003914399CE926380EE95CD8B4398CEF50F0
:1004C000006E08E139BC06D039B813D039B602D075
:1004D000200E03D039863998300E0026EACF33F04B
:1004E000E9CF32F000C03BF0A0D733C0EAFF32C002
:1004F000E9FFEE5039ACDFD712003250010A05E0B7
:10050000030A0AE0010A0FE015D0929689969398A3
:100510008A88939A8A8A0ED09296898693988A9826
:10052000939A8A8A07D09296898693988A88939A12
:100530008A9A00D01200300E325CF60F5DE20A0F8C
:10054000FDEF02F0929E899E929A899A92988998DC
:10055000929C899C51D0929E899E929A899A929857
:100560008998929C898C48D0929E899E929A899A69
:1005700092988988929C899C3FD0929E899E929A5B
:10058000899A92988988929C898C36D0929E899E6D
:10059000929A898A92988998929C899C2DD0929E51
:1005A000899E929A898A92988998929C898C24D063
:1005B000929E899E929A898A92988988929C899C17
:1005C0001BD0929E899E929A898A92988988929C41
:1005D000898C12D0929E898E929A899A9298899843
:1005E000929C899C09D0929E898E929A899A92981F
:1005F0008998929C898C00D01200E824F76AF7361B
:10060000150FF66E060EF7220A00F550FA6E080076
:10061000F550F96E4405560568057A058C059E056A
:10062000B005C205D405E605EA6A320EE96EEF5060
:100630000DE00A0E016E006A002EFED7012EFBD7D8
:100640005F0E006E002EFED7EF2EF3D71200315250
:1006500017E13050090814E32F6A220E2E6E100E97
:10066000E96E31C033F030C032F0EEDE030E326E90
:1006700044DF22C032F05FDF010E326ED5DF47D09B
:10068000315220E1305063081DE32F6A220E2E6E96
:10069000100EE96E31C033F030C032F0D5DE030EFB
:1006A000326E2BDF23C032F046DF010E326EBCDF2C
:1006B000020E326E22DF22C032F03DDF010E326EBA
:1006C000B3DF25D02F6A220E2E6E100EE96E31C0D8
:1006D00033F030C032F0B8DE030E326E0EDF24C0CD
:1006E00032F029DF010E326E9FDF020E326E05DF1F
:1006F00023C032F020DF010E326E96DF010E326E23
:10070000FCDE22C032F017DF010E326E8DDFE1EF2A
:1007100003F0F86AD09E078EEA6AE96A700ED36E1B
:10072000400E9B6ED350010E1F6E206A010E216E8B
:1007300027902792279427962F6A2E6AC150C00BC4
:100740000F09C16E070EB46E196A1A6AF19E850E02
:10075000CD6E500ECA6E110ECB6EB16A9D80C00E6A
:10076000F212700ED36E400E9B6ED350010E1F5CC2
:10077000306E316E05D6938481B40BD027B009D08A
:1007800027801F50080802E01F2A02D0010E1F6EAA
:1007900003D0938481B42790938681B60BD027B27F
:1007A00009D027821F2C01D002D01F0602D0080ECC
:1007B0001F6E03D0938681B62792316A21C030F034
:1007C00046D7938281B20BD027B409D02784215019
:1007D000700802E0212A02D0010E216E03D093821C
:1007E00081B22794938081B00BD027B609D0278699
:1007F000212C01D002D0210602D0700E216E03D030
:0A080000938081B02796B2D7FFD78E
:020000040030CA
:0E0000000048190E008100000FC00FE00F40F5
:00000001FF
;PIC18F2525
;CRC=0894  CREATED="30-May-11 08:50"
